:0400000007EF00F016
:100008005F8237ED13F033EF11F000019B519C1123
:10001800D8B411EF00F013EF00F052EF00F03AC03F
:1000280019F0193A0F0E1916030E191619500A0D60
:10003800F3CF1AF0F4CF1BF03A501A26000E1B2209
:100048000F0E1A144D6E4E6A3BC019F0193A0F0E76
:10005800191619500A0DF3CF1AF0F4CF1BF03B50C4
:100068001A26000E1B220F0E1A144B6E4C6A3CC047
:1000780019F0193A0F0E191619500A0DF3CF1AF084
:10008800F4CF1BF03C501A26000E1B220F0E1A1438
:10009800496E4A6A000E9C6F000E9B6F800E096EB7
:1000A800FF0EEBEC14F0C70E036E2F0E046E810EDC
:1000B800056E42EC12F08F0E096EFF0EEBEC14F099
:1000C800020E3D183E10D8A46CEF00F06EEF00F061
:1000D800EDEF00F051505210D8B475EF00F077EF03
:1000E80000F083EF00F0C40E096E200EEBEC14F064
:1000F800C50E096E200EEBEC14F0A3EF00F0C40E51
:10010800096E4DC001F04EC002F0000E046E0A0EDA
:10011800036EDEEC0FF00150300FEBEC14F0C50E5F
:10012800096E4DC001F04EC002F0000E046E0A0EBA
:10013800036E3FEC10F00150300FEBEC14F0C60EDC
:10014800096E3A0EEBEC14F0C70E096E4BC001F0C5
:100158004CC002F0000E046E0A0E036EDEEC0FF0C7
:100168000150300FEBEC14F0C80E096E4BC001F0D3
:100178004CC002F0000E046E0A0E036E3FEC10F045
:100188000150300FEBEC14F0C90E096E3A0EEBEC8F
:1001980014F0CA0E096E49C001F04AC002F0000E00
:1001A800046E0A0E036EDEEC0FF00150300FEBEC1C
:1001B80014F0CB0E096E49C001F04AC002F0000EDF
:1001C800046E0A0E036E3FEC10F00150300FEBEC9A
:1001D80014F03D043E10D8A4F4EF00F0F6EF00F060
:1001E8007EEF01F051505210D8B4FDEF00F0FFEF50
:1001F80000F00BEF01F0C70E096E200EEBEC14F0C7
:10020800C80E096E200EEBEC14F034EF01F05150DB
:100218005210D8A412EF01F014EF01F034EF01F0FE
:10022800C70E096E4BC001F04CC002F0000E046E00
:100238000A0E036EDEEC0FF00150300FEBEC14F0F9
:10024800C80E096E4BC001F04CC002F0000E046EDF
:100258000A0E036E3FEC10F00150300FEBEC14F077
:10026800C40E096E4DC001F04EC002F0000E046EBF
:100278000A0E036EDEEC0FF00150300FEBEC14F0B9
:10028800C50E096E4DC001F04EC002F0000E046E9E
:100298000A0E036E3FEC10F00150300FEBEC14F037
:1002A800C60E096E3A0EEBEC14F0C90E096E3A0E42
:1002B800EBEC14F0CA0E096E49C001F04AC002F016
:1002C800000E046E0A0E036EDEEC0FF00150300FC4
:1002D800EBEC14F0CB0E096E49C001F04AC002F0F5
:1002E800000E046E0A0E036E3FEC10F00150300F42
:1002F800EBEC14F03D503E10D8A485EF01F087EFE9
:1003080001F00FEF02F051505210D8B48EEF01F007
:1003180090EF01F09CEF01F0CA0E096E200EEBEC95
:1003280014F0CB0E096E200EEBEC14F0C5EF01F0C3
:1003380051505210D8A4A3EF01F0A5EF01F0C5EF7A
:1003480001F0CA0E096E49C001F04AC002F0000E61
:10035800046E0A0E036EDEEC0FF00150300FEBEC6A
:1003680014F0CB0E096E49C001F04AC002F0000E2D
:10037800046E0A0E036E3FEC10F00150300FEBECE8
:1003880014F0C40E096E4DC001F04EC002F0000E0C
:10039800046E0A0E036EDEEC0FF00150300FEBEC2A
:1003A80014F0C50E096E4DC001F04EC002F0000EEB
:1003B800046E0A0E036E3FEC10F00150300FEBECA8
:1003C80014F0C60E096E3A0EEBEC14F0C70E096E67
:1003D8004BC001F04CC002F0000E046E0A0E036E12
:1003E800DEEC0FF00150300FEBEC14F0C80E096E84
:1003F8004BC001F04CC002F0000E046E0A0E036EF2
:100408003FEC10F00150300FEBEC14F0C90E096E00
:100418003A0EEBEC14F0050E16181710D8A417EFC7
:1004280002F019EF02F080EF02F01850D8A41FEF85
:1004380002F021EF02F080EF02F0586A020E3D1838
:100448003E10D8A42AEF02F02CEF02F042EF02F09F
:100458004EBE3AEF02F04E5007E1170E4D5CD8B091
:1004680038EF02F03AEF02F03EEF02F04D4A4E2A22
:1004780042EF02F0000E4E6E000E4D6E3D043E102F
:10048800D8A449EF02F04BEF02F061EF02F04CBE46
:1004980059EF02F04C5007E13B0E4B5CD8B057EFD8
:1004A80002F059EF02F05DEF02F04B4A4C2A61EF7F
:1004B80002F0000E4C6E000E4B6E3D503E10D8A45C
:1004C80068EF02F06AEF02F080EF02F04ABE78EFC0
:1004D80002F04A5007E13B0E495CD8B076EF02F0D3
:1004E80078EF02F07CEF02F0494A4A2A80EF02F0E6
:1004F800000E4A6E000E496E060E16181710D8A484
:1005080088EF02F08AEF02F0A9EF02F01850D8A4A1
:1005180090EF02F092EF02F0A9EF02F0586A3EBEA7
:10052800A1EF02F03E5007E1020E3D5CD8B09FEF0C
:1005380002F0A1EF02F0A5EF02F03D4A3E2AA9EF32
:1005480002F0000E3E6E000E3D6E050E16181710D6
:10055800D8A4B1EF02F0B3EF02F022EF03F01804D1
:10056800D8A4B9EF02F0BBEF02F022EF03F04DC0C0
:1005780001F04EC002F0000E046E0A0E036EDEECAF
:100588000FF001503A6E3A3AF00E3A164DC001F0AB
:100598004EC002F0000E046E0A0E036E3FEC10F01F
:1005A80001503A124BC001F04CC002F0000E046E2C
:1005B8000A0E036EDEEC0FF001503B6E3B3AF00E74
:1005C8003B164BC001F04CC002F0000E046E0A0E40
:1005D800036E3FEC10F001503B1249C001F04AC0D5
:1005E80002F0000E046E0A0E036EDEEC0FF00150EE
:1005F8003C6E3C3AF00E3C1649C001F04AC002F08D
:10060800000E046E0A0E036E3FEC10F001503C120F
:100618003AC002F0020EB3EC14F03BC002F0010E37
:10062800B3EC14F03CC002F0000EB3EC14F0540E1E
:100638000E6E520E20EC0BF0020E566E060E1618B9
:100648001710D8A42AEF03F02CEF03F041EF03F0C2
:100658001804D8A432EF03F034EF03F041EF03F0AD
:10066800586A000E016E010ECFEC13F0000E000167
:100678009C6F010E9B6F020E566E1200196E0001E0
:100688009F51A011D8B44BEF03F04DEF03F052EF98
:1006980003F0196A000EA06F000E9F6F42BE60EF54
:1006A80003F0425007E1040E415CD8B05EEF03F05E
:1006B80060EF03F0B7EF03F041C00BF042C00CF05D
:1006C80039EC14F0510E036E2F0E046E800E056E79
:1006D80042EC12F0050E1918D8A475EF03F077EF65
:1006E80003F08BEF03F01650D8A47DEF03F07FEFF3
:1006F80003F08BEF03F041508F0FD96EDA6A300E9A
:10070800DF6E414A422A196A586AA4EF03F0060EBE
:100718001918D8A492EF03F094EF03F0A4EF03F0B4
:100728001650D8A49AEF03F09CEF03F0A4EF03F05F
:1007380041508F0FD96EDA6A310EDF6E85EF03F004
:1007480042BEAFEF03F0425008E14104D8A0AFEF3A
:1007580003F0B1EF03F0B7EF03F04150BF0F096E9C
:100768002A0EEBEC14F0040E41184210D8A4BFEF87
:1007780003F0C1EF03F038EF04F040BECFEF03F011
:10078800405007E1040E3F5CD8B0CDEF03F0CFEF47
:1007980003F038EF04F000019D519E11D8B4D7EF53
:1007A80003F0D9EF03F0E2EF03F0000E9E6F000EA6
:1007B8009D6F000E016E010ECFEC13F03FC00BF0E1
:1007C80040C00CF039EC14F0400E036E2F0E046E8E
:1007D800800E056E42EC12F0050E1918D8A4F7EF3A
:1007E80003F0F9EF03F00CEF04F01650D8A4FFEF74
:1007F80003F001EF04F00CEF04F03F508A0FD96EBC
:10080800DA6A300EDF6E3F4A402A586A25EF04F054
:10081800060E1918D8A413EF04F015EF04F025EF0D
:1008280004F01650D8A41BEF04F01DEF04F025EFD8
:1008380004F03F508A0FD96EDA6A310EDF6E07EF87
:1008480004F040BE30EF04F0405008E13F04D8A067
:1008580030EF04F032EF04F038EF04F03F50BF0FF0
:10086800096E2A0EEBEC14F0040E41184210D8A4BD
:1008780040EF04F042EF04F009EF05F0040E3F18D2
:100888004010D8A44AEF04F04CEF04F009EF05F04B
:1008980041508F0FD96EDA6ADF6A3F508A0FE16ED6
:1008A800E26ADFCFE7FF8F0E016E8A0E026EDAEC86
:1008B80012F001500210D8A464EF04F066EF04F0BF
:1008C800C1EF04F0730E036E2F0E046E800E056EDA
:1008D80042EC12F01E0E036E2F0E046EC00E056E53
:1008E80042EC12F00001764B772B210E761907E1C6
:1008F800030E7719D8A483EF04F085EF04F009EF0D
:1009080005F0000E426E000E416E000E406E000EA5
:100918003F6E000E776F000E766F000E9E6F010E11
:100928009D6F000EA86F010EA76F000EA06F010E3D
:100938009F6FBC0E016E026A8A0E036E046AECECAD
:1009480013F0BCC001F0000E21EC14F0BDC001F0A2
:10095800010E21EC14F0BEC001F0020E21EC14F0DF
:10096800BFC001F0030E21EC14F0500E0E6E430EC2
:1009780020EC0BF0566A09EF05F08F0E016E8A0E17
:10098800026EDAEC12F001500210D8B4CEEF04F087
:10099800D0EF04F009EF05F0840E036E2F0E046EFD
:1009A800800E056E42EC12F0EB0E036E2E0E046EF6
:1009B800C00E056E42EC12F000017651176E7751A9
:1009C800186E764B772B18BEF3EF04F0DC0E175C2D
:1009D800050E1858D8A0F3EF04F0F5EF04F009EF6E
:1009E80005F0000E426E000E416E000E406E000EC5
:1009F8003F6E000E776F000E766F000E9E6F010E31
:100A08009D6F020E566E09EF05F0060E1918D8A450
:100A180010EF05F012EF05F01DEF05F01604D8A44D
:100A280018EF05F01AEF05F01DEF05F0586A020EF1
:100A3800566E12001950800B266E195019242D6E0F
:100A480018AE29EF05F02BEF05F02CEF05F02D80FF
:100A58002D50D8B432EF05F034EF05F048EF05F02B
:100A68002D28D8A43AEF05F03CEF05F044EF05F047
:100A7800000E166E000E176E000E186E000E196E20
:100A8800188E196A50EF05F0000E166E000E176EDC
:100A9800000E186E000E196E1D50800B261A1D5080
:100AA8001D242E6E1CAE5BEF05F05DEF05F05EEFCA
:100AB80005F02E802E50D8B464EF05F066EF05F0EF
:100AC8007AEF05F02E28D8A46CEF05F06EEF05F04C
:100AD80076EF05F0000E1A6E000E1B6E000E1C6EEF
:100AE800000E1D6E1C8E1D6A82EF05F0000E1A6E38
:100AF800000E1B6E000E1C6E000E1D6E1A501B1091
:100B08001C101D10D8A48BEF05F08DEF05F0A5EF94
:100B180005F0000E166E000E176E000E186E000E11
:100B2800196E800E18127F0E19122650191216C04F
:100B380016F017C017F018C018F019C019F0E5EF33
:100B480006F02D50D8A4ABEF05F0ADEF05F0B7EFE8
:100B580005F0000E166E000E176E000E186E000ED1
:100B6800196EE5EF06F02E502DC01EF01F6A1E5EAE
:100B7800000E1F5A7F0E1E24276E000E1F20286E9F
:100B880016C022F017C023F018C024F019C025F0B1
:100B9800000E166E000E176E000E186E000E196EFF
:100BA800000E296E000E2A6E000E2B6E000E2C6EA3
:100BB8002E6A17EF06F02E50D8B4E5EF05F0E7EFF0
:100BC80005F0FEEF05F0D890223623362436253678
:100BD800D89016361736183619362CAEF6EF05F0BB
:100BE800F8EF05F0F9EF05F01680D89029362A3687
:100BF8002B362C361A50225C1B5023581C50245874
:100C08001D502558D8A00BEF06F00DEF06F016EF93
:100C180006F02C8C1A50225E1B50235A1C50245A62
:100C28001D50255A2E2A190E2E641DEF06F01FEFAF
:100C380006F0DFEF05F02250231024102510D8B459
:100C480028EF06F02AEF06F042EF06F0298042EF7F
:100C580006F0D89016361736183619362CAE37EFF8
:100C680006F039EF06F03AEF06F01680D8902936EC
:100C78002A362B362C362706D8A0280618AE47EF7A
:100C880006F049EF06F02DEF06F02E6A2CAE4FEF76
:100C980006F051EF06F075EF06F0FF0E29141E6EF0
:100CA800FF0E2A141F6EFF0E2B14206E7F0E2C14BD
:100CB800216E1E501F1020102110D8B466EF06F0C8
:100CC80068EF06F06CEF06F0010E2E6E75EF06F079
:100CD80016A071EF06F073EF06F075EF06F068EFF7
:100CE80006F02E50D8B47BEF06F07DEF06F0A1EFAA
:100CF80006F0010E1626000E17221822192219A036
:100D080088EF06F08AEF06F0A1EF06F016C01EF095
:100D180017C01FF018C020F019C021F0213421326B
:100D280020321F321E321EC016F01FC017F020C01E
:100D380018F021C019F0274A282A28BEACEF06F07F
:100D4800285008E12728D8A0ACEF06F0AEEF06F04F
:100D5800B9EF06F0000E286E2768000E166E000E1A
:100D6800176E000E186E000E196E28BEC6EF06F03C
:100D7800285006E12704D8B0C4EF06F0C6EF06F005
:100D8800D3EF06F0000E286E000E276E000E166ECA
:100D9800000E176E000E186E000E196E266A27C018
:100DA8002DF02DA0DAEF06F0DCEF06F0DFEF06F00D
:100DB800188EE0EF06F0189ED8902D30196E99EF36
:100DC80005F012000E6E43C00CF044C00DF00C3A52
:100DD8000D3AF00E0D160C500F0B0D12F00E0C16EE
:100DE800000E0C24036E020E0D20046E810E056E9B
:100DF80042EC12F043C00CF044C00DF00C3A0D3A2E
:100E0800F00E0D160C500F0B0D12F00E0C16100EE6
:100E18000C24036E020E0D20046EC10E056E42EC0A
:100E280012F0050E0E18D8A41CEF07F01EEF07F0FD
:100E380042EF07F00B50D8A424EF07F026EF07F095
:100E480042EF07F0586A59505A10D8B42EEF07F0FD
:100E580030EF07F03EEF07F043504410D8B437EFB7
:100E680007F039EF07F03EEF07F04306D8A0440635
:100E780042EF07F0000E5A6E010E596E060E0E185C
:100E8800D8A449EF07F04BEF07F07BEF07F0445089
:100E980007E1040E435CD8B054EF07F056EF07F0B3
:100EA8007BEF07F00B50D8A45CEF07F05EEF07F07C
:100EB8007BEF07F0586A59505A10D8A466EF07F02C
:100EC80068EF07F077EF07F0445007E1030E435C43
:100ED800D8B071EF07F073EF07F077EF07F0434AE8
:100EE800442A7BEF07F0000E5A6E000E596E5950D7
:100EF8005A10D8B482EF07F084EF07F090EF07F0AC
:100F0800800E096E7E0EEBEC14F0C00E096E200EFA
:100F1800EBEC14F0A3EF07F059505A10D8A497EF50
:100F280007F099EF07F0A3EF07F0800E096E200E87
:100F3800EBEC14F0C00E096E7E0EEBEC14F0050E0F
:100F48000E18D8A4AAEF07F0ACEF07F0D3EF07F01C
:100F58000B04D8A4B2EF07F0B4EF07F0D3EF07F013
:100F6800586A59505A10D8B4BCEF07F0BEEF07F0D2
:100F7800C4EF07F043C05BF044C05CF0D3EF07F068
:100F880059505A10D8A4CBEF07F0CDEF07F0D3EFA4
:100F980007F0010E43245B6E000E44205C6E5B502C
:100FA8005C10D8A4DAEF07F0DCEF07F0E9EF07F000
:100FB800000E5C6E630E5B6E030E566E000E016EC5
:100FC800010ECFEC13F044EF08F05B045C10D8A4DA
:100FD800F0EF07F0F2EF07F0FFEF07F0000E5C6E9E
:100FE800630E5B6E040E566E000E016E010ECFECA2
:100FF80013F044EF08F0020E5B185C10D8A407EF5A
:1010080008F009EF08F016EF08F0000E5C6E630EAA
:101018005B6E050E566E000E016E010ECFEC13F0DE
:1010280044EF08F0030E5B185C10D8A41EEF08F01C
:1010380020EF08F02DEF08F0000E5C6E630E5B6E7B
:10104800060E566E000E016E010ECFEC13F044EF43
:1010580008F0040E5B185C10D8A435EF08F037EFE1
:1010680008F044EF08F0000E5C6E630E5B6E070E2E
:10107800566E000E016E010ECFEC13F044EF08F02F
:10108800060E0E18D8A44BEF08F04DEF08F05FEFEE
:1010980008F00B04D8A453EF08F055EF08F05FEF01
:1010A80008F0586A000E446E000E436E000E5A6E29
:1010B800010E596E566A120092EC14F096EC10F07C
:1010C800396ECD0E1A6ECC0E1B6E240E1C6E410EA0
:1010D8001D6E040EACEC13F001C008F002C009F05C
:1010E8000A6A0B6A000E47EC0CF008C016F009C03B
:1010F80017F00AC018F00BC019F01EEC05F016C066
:101108002FF017C030F018C031F019C032F0E7ECFA
:101118000EF02FC04FF030C050F05650D8A497EFC3
:1011280008F099EF08F09EEF08F039C00BF058501E
:1011380021EC0DF0020E5818D8A4A5EF08F0A7EF7F
:1011480008F0D8EF08F05EBEB3EF08F05E5009E192
:10115800060E5D5CD8A0B3EF08F0B5EF08F0BFEF5E
:1011680008F05D2806E15E28D8A4BDEF08F0BFEFBF
:1011780008F0D8EF08F03950D8A4C5EF08F0C7EF49
:1011880008F0D8EF08F0586A5D4A5E2A000E0001A0
:101198006F6F000E6E6F5D50940FD96EDA6ADF5074
:1011A8000E6E470E20EC0BF0030E5818D8A4DFEF94
:1011B80008F0E1EF08F012EF09F05EBEECEF08F07E
:1011C8005E5008E15D04D8A0ECEF08F0EEEF08F0FF
:1011D80012EF09F05D2808E15E28D8B4F6EF08F0B0
:1011E800F8EF08F012EF09F03950D8A4FEEF08F034
:1011F80000EF09F012EF09F0586A5D06D8A05E0604
:10120800000E00016F6F000E6E6F5D50940FD96E67
:10121800DA6ADF500E6E470E20EC0BF05804D8A4A3
:1012280018EF09F01AEF09F031EF09F03950D8A496
:1012380020EF09F022EF09F031EF09F0586A000EAB
:101248005E6E010E5D6E000E00016F6F010E6E6F17
:10125800210E0E6E430E20EC0BF00001A551A611D5
:10126800D8B439EF09F03BEF09F045EF09F04E0E1D
:101278000E6E4F0E20EC0BF0000E0001A66F000E54
:10128800A56F744B752B910E741906E17505D8A4DA
:1012980050EF09F052EF09F063EF09F0000E756F97
:1012A800000E746F51505210D8B45DEF09F060EF22
:1012B80009F0010E61EF09F0000E516E526A5604F2
:1012C800D8A469EF09F06BEF09F072EF09F039C0A3
:1012D8000DF05850C8EC09F074EF09F06A696B69B1
:1012E800020E5618D8A47BEF09F07DEF09F082EFC3
:1012F80009F039C00BF05850E6EC06F0030E56180A
:10130800D8A489EF09F08BEF09F090EF09F039C004
:101318000EF05850C5EC0DF0040E5618D8A497EFEF
:1013280009F099EF09F09BEF09F06AEC0FF0050E50
:101338005618D8A4A2EF09F0A4EF09F0A6EF09F017
:1013480078EC12F0060E5618D8A4ADEF09F0AFEFFE
:1013580009F0B6EF09F058C016F0176A39C018F04E
:1013680009EC00F0070E5618D8A4BDEF09F0BFEF3E
:1013780009F062EF08F039C016F0585042EC03F05B
:1013880062EF08F007EF00F0106E000173BFD8EFAE
:1013980009F0735107E1030E725DD8B0D6EF09F07A
:1013A800D8EF09F0D9EF0AF054BEE6EF09F054502F
:1013B80007E1040E535CD8B0E4EF09F0E6EF09F05A
:1013C80051EF0AF053C00BF054C00CF039EC14F094
:1013D8002F0E036E2F0E046E800E056E42EC12F077
:1013E800050E1018D8A4FBEF09F0FDEF09F015EF72
:1013F8000AF00D50D8A403EF0AF005EF0AF015EF34
:101408000AF05350810FD96EDA6A300EDF6E534AF4
:10141800542A000E00016B6F000E6A6F586A2EEF97
:101428000AF0060E1018D8A41CEF0AF01EEF0AF0F6
:101438002EEF0AF00D50D8A424EF0AF026EF0AF098
:101448002EEF0AF05350810FD96EDA6A310EDF6E33
:101458000BEF0AF054BE39EF0AF0545008E1530478
:10146800D8A039EF0AF03BEF0AF041EF0AF05350E9
:10147800BF0F096E2A0EEBEC14F000016BBF4EEFA4
:101488000AF06B5109E1060E6A5DD8A04EEF0AF02A
:1014980050EF0AF051EF0AF0566A040E5318541030
:1014A800D8A459EF0AF05BEF0AF0D2EF0AF0856B87
:1014B800810E016EBC0E026EDAEC12F001500210C1
:1014C800D8A469EF0AF06BEF0AF07AEF0AF0300E51
:1014D8000001816F000E546E000E536E000E736F84
:1014E800000E726F020E566ED2EF0AF0BC0E016E3D
:1014F800810E026EDAEC12F001500210D8B487EFB8
:101508000AF089EF0AF0D2EF0AF0020E0E6E000E12
:101518000F6E000172510E5E73510F5A0E500F106C
:10152800D8B499EF0AF09BEF0AF0B2EF0AF0620E16
:10153800036E2F0E046E800E056E42EC12F0C00E84
:10154800096E000172513208EBEC14F0B70E036E0D
:101558002F0E046EC10E056E42EC12F00001764BA0
:10156800772BB10E761907E1040E7719D8A4BFEFCF
:101578000AF0C1EF0AF0D2EF0AF0000E776F000E02
:10158800766F000E546E000E536E724B732B000E66
:10159800016E010ECFEC13F0D2EF0AF0000E00013D
:1015A800696F1F0E686F1FEF0BF0FC0E036E2E0E97
:1015B800046E800E056E42EC12F0E50E036E2F0EDF
:1015C800046EC00E056E42EC12F0CA0E096E68C0B9
:1015D80001F069C002F0000E046E0A0E036EDEEC24
:1015E8000FF00150300FEBEC14F0CB0E096E68C011
:1015F80001F069C002F0000E046E0A0E036E3FECA3
:1016080010F00150300FEBEC14F0FA0E036E2F0EB1
:10161800046ECC0E056E42EC12F00001685169119F
:10162800D8A419EF0BF01BEF0BF01FEF0BF0000E17
:10163800736F000E726F1200136E465009E10A0EA6
:10164800455CD8A02AEF0BF02CEF0BF078EF0BF0ED
:10165800000E156E000E146E110E1402F3CF0FF06B
:10166800F4CF10F01502F3501026000E0F24016E6F
:10167800010E1020026E110E1402F3CF11F0F4CFF8
:1016880012F01502F3501226110E1124036E010EEA
:101698001220046EECEC13F0110E1402F3CF0FF0CD
:1016A800F4CF10F01502F3501026000E0F24D96E57
:1016B800010E1020DA6E1450300FDF6E144A152A0E
:1016C80015BE70EF0BF0155009E1090E145CD8A097
:1016D80070EF0BF072EF0BF030EF0BF04506D8A06F
:1016E80046064706D8A04806110E4502F3CF0FF06C
:1016F800F4CF10F04602F3501026000E0F24D96ED6
:10170800010E1020DA6E4550300FDF6E110E4502C3
:10171800F3CF0FF0F4CF10F04602F3501026010E6D
:101728000F24D96E010E1020DA6E200EDF6E110E16
:101738004502F3CF0FF0F4CF10F04602F350102615
:10174800000E0F24016E010E1020026E780E036E3B
:10175800000E056E080E046EC1EC11F0110E450264
:10176800F3CF0FF0F4CF10F04602F35010260A0E14
:101778000F24D96E010E1020DA6E200EDF6E110EC6
:101788004502F3CF0FF0F4CF10F04602F3501026C5
:101798000B0E0F24D96E010E1020DA6E13C0DFFF76
:1017A800110E4502F3CF0FF0F4CF10F04602F350BC
:1017B80010260C0E0F24D96E010E1020DA6E0EC002
:1017C800DFFF110E4502F3CF0FF0F4CF10F0460201
:1017D800F35010260D0E0F24D96E010E1020DA6E6C
:1017E800200EDF6E110E4502F3CF0FF0F4CF10F08C
:1017F8004602F35010260E0E0F24D96E010E10204B
:10180800DA6E4FC001F050C002F0000E046E0A0EEE
:10181800036EDEEC0FF00150300FDF6E110E450243
:10182800F3CF0FF0F4CF10F04602F35010260F0E4E
:101838000F24D96E010E1020DA6E4FC001F050C08F
:1018480002F0000E046E0A0E036E3FEC10F0015019
:10185800300FDF6E110E4502F3CF0FF0F4CF10F00A
:101868004602F3501026100E0F24D96E010E1020D8
:10187800DA6EDF6A454A462A000E046E010E056ECE
:10188800E5EC10F01200106E1050D8B44EEF0CF0CA
:1018980050EF0CF072EF0CF00BBE57EF0CF055EF59
:1018A8000CF072EF0CF008C00CF009C00DF00AC083
:1018B8000EF00BC00FF00C1E0D1E0E1E0F1E0C2A74
:1018C800000E0D220E220F220CC012F00DC013F0D4
:1018D8000EC014F00FC015F07AEF0CF008C012F02B
:1018E80009C013F00AC014F00BC015F00850091015
:1018F8000A100B10D8A483EF0CF085EF0CF08FEFD3
:101908000CF0000E086E000E096E000E0A6E000E36
:101918000B6E20EF0DF0960E116E99EF0CF0112A58
:10192800D8901532143213321232000E12140C6E83
:10193800000E13140D6E000E14140E6EFE0E151408
:101948000F6E0C500D100E100F10D8A4AEEF0CF047
:10195800B0EF0CF093EF0CF0BEEF0CF0112A010E73
:101968001226000E132214221522D8901532143292
:1019780013321232000E12140C6E000E13140D6E78
:10198800000E14140E6EFF0E15140F6E0C500D1071
:101998000E100F10D8A4D3EF0CF0D5EF0CF0B2EF67
:1019A8000CF0DDEF0CF01106D89012361336143611
:1019B800153614BEE2EF0CF0E4EF0CF0ECEF0CF08F
:1019C800020E1160EAEF0CF0ECEF0CF0D7EF0CF020
:1019D80011B0F1EF0CF0F3EF0CF0F4EF0CF0149EF3
:1019E800D890113211C00CF00D6A0E6A0F6A0CC043
:1019F8000FF00E6A0D6A0C6A0C5012120D50131279
:101A08000E5014120F5015121050D8B40EEF0DF0DE
:101A180010EF0DF018EF0DF00BBE17EF0DF015EFEE
:101A28000DF018EF0DF0158E12C008F013C009F074
:101A380014C00AF015C00BF012000C6E950E036E60
:101A48002F0E046E800E056E42EC12F009EC13F0B6
:101A5800780E036E046AC00E056E42EC12F05D2823
:101A680006E15E28D8A43BEF0DF03DEF0DF051EFF5
:101A78000DF000016E516F11D8A445EF0DF047EF3E
:101A88000DF051EF0DF0F50E036E2F0E046EC80E1B
:101A9800056E42EC12F081EF0DF000016E516F11EE
:101AA800D8B459EF0DF05BEF0DF069EF0DF0F00EC3
:101AB800036E2F0E046EC80E056E42EC12F0000E77
:101AC8005E6E000E5D6E81EF0DF0C80E096E200E81
:101AD800EBEC14F0C90E096E470EEBEC14F0CA0ECD
:101AE800096E5D50940FD96EDA6ADF50EBEC14F092
:101AF800CB0E096E200EEBEC14F0CC0E096E200E06
:101B0800EBEC14F0CD0E096E4FC001F050C002F09E
:101B1800000E046E0A0E036EDEEC0FF00150300F5B
:101B2800EBEC14F0CE0E096E4FC001F050C002F07D
:101B3800000E046E0A0E036E3FEC10F00150300FD9
:101B4800EBEC14F0CF0E096E200EEBEC14F0050E42
:101B58000C18D8A4B2EF0DF0B4EF0DF0C4EF0DF0EF
:101B68000B50D8A4BAEF0DF0BCEF0DF0C4EF0DF098
:101B7800586A010E566E000E016E010ECFEC13F07E
:101B88001200116E0001A351A411D8B4CEEF0DF0CC
:101B9800D0EF0DF0DAEF0DF0000EA46F000EA36F7A
:101BA800000E046E010E056E7CEC11F0800E096EBD
:101BB800FF0EEBEC14F0D60E036E2F0E046E810EA2
:101BC800056E42EC12F08F0E096EFF0EEBEC14F06E
:101BD800110E00016403F3CF0FF0F4CF10F065038A
:101BE800F3501026000E0F24036E010E1020046E11
:101BF800C00E056E42EC12F0050E1118D8A407EFBE
:101C08000EF009EF0EF01FEF0EF0000164516511A0
:101C1800D8B411EF0EF013EF0EF01FEF0EF00E50C8
:101C2800D8A419EF0EF01BEF0EF01FEF0EF06407AB
:101C3800D8A06507586A060E1118D8A426EF0EF02A
:101C480028EF0EF045EF0EF0FF0E47240F6EFF0E43
:101C58004820106E0F500001645D10506559D8B0CF
:101C680038EF0EF03AEF0EF045EF0EF00E50D8A414
:101C780040EF0EF042EF0EF045EF0EF0644B652B8F
:101C8800586A060E1118D8A44CEF0EF04EEF0EF05D
:101C980062EF0EF00E04D8A454EF0EF056EF0EF0DB
:101CA80062EF0EF0586A000E0001656F000E646F57
:101CB800000EA46F010EA36F020E566E1200819AD9
:101CC800818C818E81B26BEF0EF06DEF0EF070EFAC
:101CD8000EF0010EE6EF0EF081B475EF0EF077EF1F
:101CE8000EF07AEF0EF0040EE6EF0EF081B67FEFFD
:101CF8000EF081EF0EF084EF0EF0070EE6EF0EF017
:101D080081B889EF0EF08BEF0EF08EEF0EF00A0E11
:101D1800E6EF0EF0818A819C818E81B296EF0EF0FB
:101D280098EF0EF09BEF0EF0020EE6EF0EF081B486
:101D3800A0EF0EF0A2EF0EF0A5EF0EF0050EE6EF05
:101D48000EF081B6AAEF0EF0ACEF0EF0AFEF0EF08A
:101D5800080EE6EF0EF081B8B4EF0EF0B6EF0EF015
:101D6800B9EF0EF00B0EE6EF0EF0818A818C819EA2
:101D7800819E81B2C2EF0EF0C4EF0EF0C7EF0EF0F5
:101D8800030EE6EF0EF081B4CCEF0EF0CEEF0EF0BE
:101D9800D1EF0EF0060EE6EF0EF081B6D6EF0EF09C
:101DA800D8EF0EF0DBEF0EF0090EE6EF0EF081B87B
:101DB800E0EF0EF0E2EF0EF0E5EF0EF00C0EE6EFBE
:101DC8000EF0FF0E120031343234386E3850D8A479
:101DD800F0EF0EF0F2EF0EF0FCEF0EF0000E2F6EAB
:101DE800000E306E000E316E000E326E69EF0FF08D
:101DF8002FC033F030C034F031C035F032C036F087
:101E0800200E0CEF0FF0D8903632353234323332A0
:101E1800E82E07EF0FF03350376E318EFF0E2F1676
:101E2800FF0E3016FF0E3116000E3216960E385E73
:101E380038BE23EF0FF021EF0FF039EF0FF03850D5
:101E4800800A970FD8B02BEF0FF02DEF0FF02FEF80
:101E58000FF0F2EF0EF0D8903232313230322F32AA
:101E6800383E2FEF0FF051EF0FF01F0E38643FEFA1
:101E78000FF041EF0FF049EF0FF0F2EF0EF0D890AE
:101E88002F3630363136323638063850D8A44FEF30
:101E98000FF051EF0FF043EF0FF03750D8B457EF72
:101EA8000FF059EF0FF061EF0FF0321E311E301EA8
:101EB8002F6C000E3022312232222FC02FF030C07A
:101EC80030F031C031F032C032F012000001A151BF
:101ED800A211D8B472EF0FF074EF0FF08AEF0FF081
:101EE8004C0E0E6E440E20EC0BF0000E0001A26F9B
:101EF800000EA16FC30E026E2E0E036EABEC12F035
:101F0800000E046E010E056E7CEC11F0A60E036E39
:101F18002F0E046E800E056E42EC12F0AB0E036EAF
:101F2800046AC00E056E42EC12F0B5EF0FF0110E08
:101F38006203F3CF16F0F4CF17F06303F3501726BC
:101F4800000E1624026E010E1720036EABEC12F081
:101F58000001624B632BE80E026E2E0E036EABEC93
:101F680012F047500001625D48506359D8A0BFEF96
:101F78000FF0C1EF0FF09BEF0FF0704B712BE90ED4
:101F8800701907E1030E7119D8A4CDEF0FF0CFEF48
:101F98000FF0DDEF0FF0000E716F000E706F000E86
:101FA800A26F010EA16F000E636F000E626F020E2A
:101FB800566E1200066A04BEE6EF0FF0E4EF0FF06B
:101FC800ECEF0FF0036C041ED8B0042A010E066E65
:101FD80002BEF3EF0FF0F1EF0FF0F9EF0FF0016C25
:101FE800021ED8B0022A010E061A000E086E000E54
:101FF800076E03500410D8B404EF10F006EF10F089
:102008002EEF10F0010E056E0EEF10F0D89003368B
:102018000436052A04AE13EF10F015EF10F00AEF9E
:1020280010F0D890073608360350015C0450025867
:10203800D8A021EF10F023EF10F028EF10F0035094
:10204800015E0450025A0780D89004320332052EEC
:1020580015EF10F00650D8B434EF10F036EF10F04A
:102068003AEF10F0076C081ED8B0082A07C001F034
:1020780008C002F01200066A02BE47EF10F045EFF2
:1020880010F04DEF10F0016C021ED8B0022A010EBC
:10209800066E04BE54EF10F052EF10F058EF10F037
:1020A800036C041ED8B0042A03500410D8B45FEFA0
:1020B80010F061EF10F085EF10F0010E056E69EF7A
:1020C80010F0D89003360436052A04AE6EEF10F0EF
:1020D80070EF10F065EF10F00350015C04500258E7
:1020E800D8A079EF10F07BEF10F07FEF10F00350DD
:1020F800015E0450025AD89004320332052E70EF64
:1021080010F00650D8B48BEF10F08DEF10F091EF6F
:1021180010F0016C021ED8B0022A01C001F002C002
:1021280002F0120057C058F0000E06EC12F0576E7D
:102138005728D8B4A2EF10F0A4EF10F0C0EF10F0B9
:1021480000016651026E6751036E664B672B03BE32
:10215800B7EF10F0910E025C010E0358D8A0B7EF4C
:1021680010F0B9EF10F0E3EF10F0000E676F000EFB
:10217800666F010EE4EF10F0000167BFCFEF10F0BB
:10218800900E665D010E6759D8B0CDEF10F0CFEF15
:1021980010F0E3EF10F067BFDAEF10F0675108E1D5
:1021A8006605D8A0DAEF10F0DCEF10F0E3EF10F0DE
:1021B800000E676F000E666F000EE4EF10F0020E5F
:1021C8001200000E096E000E086E000E0B6E000E57
:1021D8000A6E1FEF11F0000E0D6E000E0C6ED890F7
:1021E8000A34D96E0B34DA6E0450D9260550DA2237
:1021F800DECF06F0DDCF07F00C500624D96E0D5067
:102208000720DA6EDF50026E0850C2EC14F0084A5C
:10221800092A0C4A0D2A0DBE1BEF11F00D5009E1D9
:10222800110E0C5CD8A01BEF11F01DEF11F0F3EFAD
:1022380010F00A4A0B2A010E4724066E000E4820A9
:10224800076E06500A5C07500B58D8A02EEF11F005
:1022580030EF11F0EFEF10F0474A482A1200C00E95
:10226800F66E260EF76E000EF86E02EE00F010EE17
:1022780050F00900F5CFEEFFE550E150FAE1A20E6B
:10228800F66E280EF76E000EF86E00EE94F010EE63
:102298002DF00900F5CFEEFFE550E150FAE1760E9A
:1022A800F66E2A0EF76E000EF86E00EE59F010EE7C
:1022B80006F00900F5CFEEFFE550E150FAE101EE36
:1022C80000F0BB0EEE6AE806FDE100EE60F0340EA9
:1022D800EE6AE806FDE100EE3AF01F0EEE6AE80647
:1022E800FDE15F905F92000EF86E000160EF08F06C
:1022F800000E096E000E086E000E0B6E000E0A6EC0
:10230800B5EF11F0000E0D6E000E0C6ED8900A3469
:10231800D96E0B34DA6E0450D9260550DA22DECF96
:1023280006F0DDCF07F00C500624D96E0D500720BB
:10233800DA6E085068EC14F0DF6E084A092A0C4A75
:102348000D2A0DBEB1EF11F00D5009E1110E0C5C14
:10235800D8A0B1EF11F0B3EF11F08AEF11F00A4AEB
:102368000B2A47500A5C48500B58D8A0BEEF11F012
:10237800C0EF11F086EF11F0120001C006F002C0A4
:1023880007F0C9EF11F0064A072A06C0D9FF07C0AF
:10239800DAFFDF50D8A4D3EF11F0D5EF11F0C7EF73
:1023A80011F0DDEF11F0064A072A032A0406D8A027
:1023B800050604500510D8B4E4EF11F0E6EF11F06B
:1023C800F7EF11F00350D96EDA6A06C0E1FF07C0D3
:1023D800E2FFDFCFE7FFE750D8A4F5EF11F0F7EF02
:1023E80011F0D7EF11F004500510D8A4FEEF11F04A
:1023F80000EF12F005EF12F006C0D9FF07C0DAFFB0
:10240800DF6A1200016E0104D8A40DEF12F00FEF7D
:1024180012F034EF12F063EC0EF0556E5528D8B474
:1024280018EF12F01AEF12F027EF12F00001A9517D
:10243800D8B421EF12F023EF12F027EF12F0A96BB6
:10244800555041EF12F05528D8A42DEF12F02FEF78
:1024580012F040EF12F0010E0001A96F40EF12F0E8
:102468000150D8A43AEF12F03CEF12F040EF12F00E
:1024780063EC0EF041EF12F0FF0E1200000E016E39
:102488000550CFEC13F05FEF12F0010E016E03C0A0
:10249800F6FF04C0F7FFF86A050EF76403D00800DA
:1024A800F55005D0F6CFE1FFF7CFE2FFE750CFECCC
:1024B80013F0034A042A03C0F6FF04C0F7FFF86AC2
:1024C800050EF76403D00800F55005D0F6CFE1FFFC
:1024D800F7CFE2FFE7500009D8A475EF12F077EFC5
:1024E80012F049EF12F01200000E486E000E476E0F
:1024F800000E466E000E456E0D0E036E2F0E046E16
:10250800800E056E42EC12F01E0E036E2F0E046E46
:10251800C00E056E42EC12F00001704B712B590E83
:10252800701907E1020E7119D8A49DEF12F09FEF00
:1025380012F0AAEF12F0000E716F000E706F4C0EC1
:102548000E6E430E20EC0BF0020E566E1200C1EF19
:1025580012F002C0F6FF03C0F7FFF86A050EF76431
:1025680003D00800F55005D0F6CFE1FFF7CFE2FF22
:10257800E750DFEC14F0024A032A02C0F6FF03C05A
:10258800F7FFF86A050EF76403D00800F55005D088
:10259800F6CFE1FFF7CFE2FFE7500009D8A4D7EF65
:1025A80012F0D9EF12F0ADEF12F01200DEEF12F0D8
:1025B800012A022A0250D96EDA6A0150E16EE26AF3
:1025C800DE50E618D8A4EBEF12F0EDEF12F0F8EFBA
:1025D80012F00150D96EDA6ADF50D8A4F6EF12F083
:1025E800F8EF12F0DCEF12F00150D96EDA6ADF5022
:1025F800036E0250D96EDA6ADF50046E0450035C31
:10260800016E026AD8A002061200020E7DEC14F0D8
:102618003A6E010E7DEC14F03B6E000E7DEC14F06A
:102628003C6E3A380F0B030B300F0001786F3A50AD
:102638000F0B300F796F3A0E7A6F3B380F0B0F0B79
:10264800300F7B6F3B500F0B300F7C6F3A0E7D6F56
:102658003C380F0B0F0B300F7E6F3C500F0B300FB9
:102668007F6F806B12000600F2A43DEF13F03FEF7E
:1026780013F05EEF13F0080ED624D66E000ED720A6
:10268800D76E0001604B612B210E601907E14E0ED9
:102698006119D8A452EF13F054EF13F05DEF13F063
:1026A800000E616F000E606F6A4B6B2B6807D8A035
:1026B8006907F2945F92110056696577204C6F673D
:1026C8007320202020202000446F776E6C6F616497
:1026D800204C6F6773202000436C656172204C6F3B
:1026E8006773202020202000526573657420546988
:1026F8006D652020202020004368616E67652050AA
:10270800617373776F726400000E7DEC14F0046ED1
:1027180004508009026E000EB3EC14F0020E7DEC3A
:1027280014F0046E0450BF0B026E020EB3EC14F0EA
:10273800930E026E070EB3EC14F0000E7DEC14F04D
:10274800046E04507F0B026E000EB3EC14F01200FE
:10275800076E07C003F0D8900336D8900336C250EE
:10276800C30B0310C26EC282C2B2BDEF13F0BFEF3B
:1027780013F0B8EF13F0C350C4CF03F0046A03C0DA
:1027880004F0036A0310056E0450066E05C001F0DC
:1027980006C002F01200026E01B0D5EF13F0D8EFB8
:1027A80013F08282D9EF13F0829202C083FF8284F1
:1027B8008294958E828082928284829483BEE7EF8F
:1027C80013F0E9EF13F0E0EF13F08290959E1200FA
:1027D80001C005F002C006F003C0D9FF04C0DAFF4B
:1027E800034A042A05C0E1FF06C0E2FF054A062A9B
:1027F800DFCFE7FFE750D8A404EF14F006EF14F09A
:10280800F0EF13F01200956A9450F80B946E8290D2
:10281800000E016E020ECFEC13F0000E016E380EA2
:10282800CFEC13F0000E016E0C0ECFEC13F0000E7F
:10283800016E010ECFEC13F01200026E02C0A9FF68
:1028480001C0A8FFA69EA69CA684F29E550EA76E60
:10285800AA0EA76EA682F28EA1A835EF14F037EF64
:1028680014F030EF14F0A198120051505210D8B45F
:1028780040EF14F042EF14F04AEF14F00B50C00F81
:10288800096E200EEBEC14F050EF14F00B50C00F53
:10289800096E5F0EEBEC14F01200524E31323334F5
:1028A80035010001000100010001000100010001E3
:1028B8002A2F202F202F202F202F202F202F202F8E
:0728C8002000303030300029
:1028D000026E37EC15F0A00E25EC15F0025025EC39
:1028E00015F02BEC15F0A10E25EC15F01FEC15F0F2
:1028F000036E33EC15F003501200026E37EC15F046
:10290000D00E25EC15F0025025EC15F02BEC15F04F
:10291000D10E25EC15F01FEC15F0036E33EC15F01D
:10292000035012000DEC15F007EC14F0F7EC14F066
:10293000D1EC14F002EC15F088EC13F0A3EC14F0D9
:10294000F28CF28E1200948E949CAC9CAC8AAC9863
:10295000AC96AC84AB8EAB9CAB88B896810EAF6E58
:102960009E989E9A1200036E37EC15F0D00E25EC5F
:1029700015F0035025EC15F0025025EC15F033EC62
:1029800015F01200036E37EC15F0A00E25EC15F0D3
:10299000035025EC15F0025025EC15F033EC15F042
:1029A0001200C08EC08AC098C096C090C082C094E9
:1029B000C292C19AC198C46AC36AC2801200016EF1
:1029C0009EA8E5EF14F0E7EF14F0E0EF14F09E9806
:1029D00001C0ADFF12000A6E000E016E0950CFEC6F
:1029E00013F0010E016E0A50CFEC13F01200D58CDB
:1029F000D59AD58ED586000ED76E060ED66EF29479
:102A0000F28A120094869488280EC66E310EC86E23
:102A1000C79CC78E9E96A19612000F0EC16E1E0E09
:102A2000936EF19E8150E009816E12009EA61BEF0D
:102A300015F01DEF15F016EF15F09E9612002FEC15
:102A400015F03EEC15F0C9501200016E01C0C9FF2F
:102A500016EC15F01200C58216EC15F01200C586B2
:102A600016EC15F01200C58416EC15F01200C580A6
:102A700016EC15F0120001006300FFFFC58AC5883F
:022A8000120042
:102EC200004C4F4753205245434F524445442049FA
:102ED2004E2054484520424C41434B20424F5820FB
:102EE200415245203A2D0A0D0020202054525920EB
:102EF20020414741494E2020200020414343455371
:102F0200532044454E49454420200020204C4F4741
:102F12005320434C45415245442020002020535524
:102F2200434345535346554C4C5920200020454EAF
:102F32005445522050415353574F5244200020527F
:102F4200452D454E544552205041535744200020B0
:102F5200454E544552204E45572050535744200069
:102F62002050415357442049532057524F4E472037
:102F72000050415353574F5244204348414E474516
:102F8200440050535744204E4F54204D415443481F
:102F9200454400202054494D4520202045562020FC
:102FA200535044004C4F475320444F574E4C4F41CF
:102FB20044494E470020205452494553204C45462F
:102FC2005420202000202052657365742054696DBE
:102FD20065202000204C6F67202044657461696C75
:102FE2007320005472792041667465722000204378
:0E2FF200212000204F4E200020536563000078
:020000040020DA
:08000000FFFFFFFFFFFFFFFF00
:020000040030CA
:0E000000FF071F1FFF8285FF0FC00FE00F409C
:00000001FF
